:100000005806002011010000050100000501000054
:1000100005010000050100000501000080B500AFEA
:100020004FF4E131142000F018F9224800F07AF979
:10003000214800F077F91F4800F074F91D4800F0DE
:1000400071F91E4800F06EF91A4800F06BF91C486F
:1000500000F068F90A2000F0F9F9164800F062F99A
:10006000184800F05FF9362000F0F0F9114800F070
:1000700059F9104800F056F9134800F053F964207C
:1000800000F092F90B4800F04DF9104800F04AF9E1
:10009000642000F0DBF9074800F044F90C4800F058
:1000A00041F9642000F054F9024800F03BF900BF28
:1000B00080BD00BFB40400000000002064000020E8
:1000C000B8040000C4040000D0040000E4040000F0
:1000D000F404000080B483B000AF0346FB7100BF9E
:1000E000064B1B6803F00103002BF9D1044AFB798E
:1000F000136000BF0C37BD4680BC704718C000407D
:1001000000C0004080B500AF00F002F800BF80BD25
:1001100080B586B000AF1A4A1A4BD31A7B601A4BCF
:100120007B61184B3B610023FB600AE07A69531C3A
:100130007B613B69591C396112781A70FB68013385
:10014000FB60FB687A689A42F0D8104A104BD31AC9
:100150003B600F4B3B610023BB6007E03B695A1CCF
:100160003A6100221A70BB680133BB60BB683A6811
:100170009A42F3D8FFF752FF00BF1837BD4680BD43
:1001800058020020000000202E0500005806002024
:100190005802002080B487B000AF78603960002337
:1001A0003B613B68FB600AE03B6901333B61FB68F4
:1001B0001F4A82FB03129210DB17D31AFB60FB6805
:1001C000002BF1D100237B6123E03A68184B83FBBD
:1001D00002139910D317C91A0B469B000B445B00FE
:1001E000D31ABB603B68124A82FB03129210DB17E2
:1001F000D31A3B60BB68DAB27B6901333969CB1A29
:1002000019467B680B443032D2B21A707B690133D5
:100210007B617A693B699A42D7DB3B697A68134410
:1002200000221A703B6918461C37BD4680BC7047D7
:100230006766666680B483B000AF00237B6002E02F
:100240007B6801337B607B6843F697229342F7DD3E
:1002500000BF0C37BD4680BC704780B485B000AF8E
:1002600078603960254B1B68244A43F00103136012
:10027000234B1B68224A43F001031360214B1B6888
:10028000204A43F0030313601F4B1B681E4A43F0D0
:10029000030313601D4B1B681C4A23F0010313600A
:1002A0007B681B4A02FB03F3FB60FB689B001A465A
:1002B0003B685B081A443B68B2FBF3F39A11154B99
:1002C0001A60FB689B001A463B685B081A443B684F
:1002D000B2FBF3F3104A03F03F0313600F4B6022AD
:1002E0001A600F4B00221A60084B40F201321A606C
:1002F00000BF1437BD4680BC704700BF18E60F40F2
:1003000008E60F40204400401C45004030C000403B
:1003100040420F0024C0004028C000402CC00040D4
:10032000C8CF004080B582B000AF786008E07B683D
:100330005A1C7A601B781846FFF7CCFEFFF77AFF4D
:100340007B681B78002BF2D100BF0837BD4680BD0B
:1003500080B584B000AF78601048FFF7E3FF1F233B
:10036000FB6013E00122FB6802FA03F3BB60BA688A
:100370007B681340002B03D00948FFF7D3FF02E04E
:100380000848FFF7CFFFFB68013BFB60FB68002BD1
:10039000E8DA00BF1037BD4680BD00BF0C05000085
:1003A000140500001805000080B5A0B000AF78600B
:1003B00000237B677B68FB672AE0FB6F5A4203F0F0
:1003C0000F0302F00F0258BF53423B673B6F092BEC
:1003D0000CDC3B6FDAB27B6F591C79673032D2B2DA
:1003E00007F180010B4403F8742C0BE03B6FDAB289
:1003F0007B6F591C79673732D2B207F180010B4409
:1004000003F8742CFB6F002B00DA0F331B11FB6712
:10041000FB6F002BD1D10C48FFF784FF7B6FBB67CC
:100420000AE007F10C02BB6F13441B781846FFF774
:1004300051FEBB6F013BBB67BB6F002BF1DA00BF06
:100440008037BD4680BD00BF1C05000080B588B068
:1004500000AF78601648FFF765FF0023FB617B68FB
:10046000002B09DA2D20FFF735FEFB690133FB6114
:100470007B685B427B6007E07B68002B04D1302007
:10048000FFF728FE01230FE007F10C0379681846F7
:10049000FFF780FE0246FB691344FB6107F10C0382
:1004A0001846FFF73FFFFB6918462037BD4680BD61
:1004B000240500000D0A00004942524420696E20C4
:1004C000000000004642524420696E2000000000F7
:1004D0004F6E652048756E6472656420696E2048B1
:1004E000455820004F6E652048756E647265642023
:1004F000696E20004F6E652048756E6472656420D9
:10050000696E2042696E61727920000030623A2083
:1005100000000000310000003000000030783A2078
:0E05200000000000446563696D616C3A2000C4
:10052E004E616D653A204D6F68616D65642047615F
:10053E006D616C2053616C6568204D6F6168656DEF
:10054E00640D0A49443A20313830373537300D0AB8
:10055E005345433A20310000000000000000000027
:10056E00000000000000000000000000000000007D
:10057E00000000000000000000000000000000006D
:10058E00000000004571756174696F6E3A20425229
:10059E0044203D2042524449202B204252444620C2
:1005AE003D2055415254537973436C6B202F2028B4
:1005BE003136202A20426175642052617465290DFE
:1005CE000A55415254537973436C6B3A2032302C96
:1005DE003030302C3030300D0A426175642052615B
:1005EE0074653A203131352C323030000000000075
:1005FE0000000000000000000000000000000000ED
:10060E0000000000000000000000000000000000DC
:10061E0000000000000000000000000000000000CC
:10062E0000000000000000000000000000000000BC
:10063E0000000000000000000000000000000000AC
:10064E00000000000000000000000000000000009C
:10065E00000000000000000000000000000000008C
:10066E00000000000000000000000000000000007C
:10067E00000000000000000000000000000000006C
:10068E00000000000000000000000000000000005C
:10069E00000000000000000000000000000000004C
:1006AE00000000000000000000000000000000003C
:1006BE00000000000000000000000000000000002C
:1006CE00000000000000000000000000000000001C
:1006DE00000000000000000000000000000000000C
:1006EE0000000000000000000000000000000000FC
:1006FE0000000000000000000000000000000000EC
:10070E0000000000000000000000000000000000DB
:10071E0000000000000000000000000000000000CB
:10072E0000000000000000000000000000000000BB
:10073E0000000000000000000000000000000000AB
:10074E00000000000000000000000000000000009B
:10075E00000000000000000000000000000000008B
:10076E00000000000000000000000000000000007B
:08077E00000000000000000073
:00000001FF
